:020000040800F2
:10280000004000207D2D0008652D0008672D000880
:1028100000000000000000000000000000000000B8
:10282000000000000000000000000000692D00080A
:1028300000000000000000006B2D00081996000841
:10284000CD2D0008CD2D0008CD2D0008CD2D000880
:10285000CD2D0008CD2D0008CD2D0008CD2D000870
:10286000CD2D0008CD2D0008CD2D00086D480008A5
:10287000CD2D0008CD2D0008CD2D0008CD2D000850
:10288000CD2D0008CD2D0008CD2D0008CD2D000840
:10289000CD2D0008CD2D0008CD2D0008CD2D000830
:1028A000CD2D0008CD2D0008CD2D0008CD2D000820
:1028B000CD2D0008CD2D0008000000006972010830
:1028C00002B4714649084900095649008E4402BCC9
:1028D0007047C04602B4714649084900095C490086
:1028E0008E4402BC7047C04603B47146490840009C
:1028F0004900095E49008E4403BC704703B4714629
:10290000490840004900095A49008E4403BC7047F9
:1029100003B47146023189088000890008584018C4
:10292000864603BCF746C046002243088B4274D358
:1029300003098B425FD3030A8B4244D3030B8B42C0
:1029400028D3030C8B420DD3FF22090212BA030CC9
:102950008B4202D31212090265D0030B8B4219D3AA
:1029600000E0090AC30B8B4201D3CB03C01A5241CA
:10297000830B8B4201D38B03C01A5241430B8B4212
:1029800001D34B03C01A5241030B8B4201D30B03FB
:10299000C01A5241C30A8B4201D3CB02C01A524122
:1029A000830A8B4201D38B02C01A5241430A8B42E5
:1029B00001D34B02C01A5241030A8B4201D30B02CE
:1029C000C01A5241CDD2C3098B4201D3CB01C01AE8
:1029D000524183098B4201D38B01C01A52414309F2
:1029E0008B4201D34B01C01A524103098B4201D3E0
:1029F0000B01C01A5241C3088B4201D3CB00C01A4D
:102A0000524183088B4201D38B00C01A52414308C4
:102A10008B4201D34B00C01A5241411A00D20146E9
:102A2000524110467047FFE701B5002000F0F0F872
:102A300002BDC0460029F7D076E7704703460B4336
:102A40007FD4002243088B4274D303098B425FD3A7
:102A5000030A8B4244D3030B8B4228D3030C8B42D3
:102A60000DD3FF22090212BA030C8B4202D31212B9
:102A7000090265D0030B8B4219D300E0090AC30B8E
:102A80008B4201D3CB03C01A5241830B8B4201D33B
:102A90008B03C01A5241430B8B4201D34B03C01A24
:102AA0005241030B8B4201D30B03C01A5241C30A9C
:102AB0008B4201D3CB02C01A5241830A8B4201D30D
:102AC0008B02C01A5241430A8B4201D34B02C01AF7
:102AD0005241030A8B4201D30B02C01A5241CDD29C
:102AE000C3098B4201D3CB01C01A524183098B42E7
:102AF00001D38B01C01A524143098B4201D34B01D0
:102B0000C01A524103098B4201D30B01C01A524132
:102B1000C3088B4201D3CB00C01A524183088B42B9
:102B200001D38B00C01A524143088B4201D34B00A2
:102B3000C01A5241411A00D2014652411046704714
:102B40005DE0CA0F00D04942031000D34042534019
:102B500000229C4603098B422DD3030A8B4212D3D9
:102B6000FC22890112BA030A8B420CD3890192110B
:102B70008B4208D3890192118B4204D389013AD048
:102B8000921100E08909C3098B4201D3CB01C01A1D
:102B9000524183098B4201D38B01C01A5241430930
:102BA0008B4201D34B01C01A524103098B4201D31E
:102BB0000B01C01A5241C3088B4201D3CB00C01A8B
:102BC000524183088B4201D38B00C01A5241D9D2A3
:102BD00043088B4201D34B00C01A5241411A00D224
:102BE0000146634652415B10104601D34042002B20
:102BF00000D54942704763465B1000D3404201B59F
:102C0000002000F005F802BD0029F8D016E7704753
:102C10007047C046D0400B00D1409C46203AD3407C
:102C20001843524263469340184370479140030053
:102C300090409C46203A9340194352426346D34009
:102C4000194370471C2101231B04984201D3000C37
:102C500010391B0A984201D3000A08391B0998420F
:102C600001D30009043902A2105C40187047C04625
:102C70000403020201010101000000000000000045
:102C80000023C25C0133002AFBD1581E70470000AC
:102C90000448054B10B5834203D0044B002B00D0F1
:102CA000984710BD7401002074010020000000004E
:102CB00006480749091A8B10C90FC91810B54910E1
:102CC00003D0044B002B00D0984710BD74010020A6
:102CD000740100200000000010B5074C2378002B81
:102CE00009D1FFF7D5FF054B002B02D0044800E0C7
:102CF00000BF0123237010BD40120020000000001F
:102D000018770108054B10B5002B03D0044905487E
:102D100000E000BFFFF7CCFF10BDC0460000000080
:102D2000441200201877010807B501210B4B0C480D
:102D30001A6C0A431A641A6C0A4080210192019AA3
:102D4000DA6B49050A43DA63DB6B0B400093009BA7
:102D500000F03EF909F02EFBFEE7C04600100240ED
:102D6000006CDC027047FEE770477047014B024A77
:102D70009A60704700ED00E0002800080D48854685
:102D8000FFF7F4FF0C480D490D4A002302E0D45828
:102D9000C4500433C4188C42F9D30A4A0A4C0023A5
:102DA00001E013600432A242FBD314F035FCFFF7BC
:102DB000BBFFFEE70040002000000020740100205F
:102DC000589B01084012002000350020FEE700005B
:102DD000054B064A9B681B051B0F9B009B581F2237
:102DE0001340D8407047C04600100240DC7701080D
:102DF000054B064A9B685B045B0F9B009B581F2298
:102E00001340D8407047C04600100240BC7701080C
:102E10000A4AD368DB439B070BD0536808491B045D
:102E20005B0F9B0058580C23D2681A4203D1400014
:102E300070470448F7E703235843F9E700100240BE
:102E40009C77010800366E013821104A10B593684E
:102E50000B40102B15D00DD8082B15D00720536828
:102E600012685B0B03400A499B00D20A0240585883
:102E7000D04008E00821183B8B43EFD180200002AE
:102E800001E0FFF7C5FF10BD0248FCE7001002405B
:102E90009C77010800366E0110B50400FFF7D4FFDF
:102EA0002060FFF795FF6060FFF7A2FFA06010BDF4
:102EB000104B10B5CB5CD468C018936801682343ED
:102EC000146923435469234394692343D4692343F6
:102ED000546A2343084C21400B4303605368C3608A
:102EE0001368126A836043681B0C1B04134343601E
:102EF000002010BD1B7801080F80FFFF0023036036
:102F000043608360C360036143618361C3610362A3
:102F100043627047F7B500254B680A6800935F1E4F
:102F20001300EB4009D1012F05D84368C9689343CA
:102F30004A43134343600020FEBD01241300AC400C
:102F4000234022422BD01A0003265A435643B4464C
:102F5000F643019666460468B443009E56433443E4
:102F60000460012F06D88C6887685443019E37405F
:102F70003C4384600C69C7685443019E37403C431E
:102F8000C460009C022C0AD14C69FF2B09D80F2683
:102F9000524356436243036AB3431A430262013504
:102FA000BAE70F261B0A5B435B435E435C43426AFE
:102FB000B24322434262F2E7044B036003234360BF
:102FC00000238360C360036143617047FFFF00001B
:102FD000014B18607047C0460000002003680200E3
:102FE00070B501205B0620D44E680B6848693343F6
:102FF0008E6815683343CE680C6A33430E693343D9
:103000008E6903433343CE69000C33430B4E234395
:1030100035402B43042513605368AB43184380238A
:1030200050609B019C4205D00020D36904490B40AD
:10303000D36170BD4B6A9BB21361F5E74000FFFF9F
:10304000FFF7FFFF0023036043608360C3600361F9
:1030500043618361C36103620733436270470000C9
:103060007FB5C36804000D009B0402D5012004B0A5
:1030700070BD4B68C968C2680B4329690B432D4971
:103080000A401343C36043692B4A1340AA691343A0
:1030900043610369294A1340AA68134303614369E2
:1030A000274A13406A691343436101A8FFF7F4FEFE
:1030B000039B002BDAD029680029D7D01920584368
:1030C0008023AA691B019A421DD14900FFF72CFCFD
:1030D00064210600FFF7AEFCC80032306421FFF720
:1030E00023FC642185B23000FFF71EFC072300019A
:1030F0002B40C018F8236D005B001D40401980B2C2
:10310000A0600020B3E78900FFF70EFC64210600F1
:10311000FFF790FC080132306421FFF705FC6421C1
:1031200005003000FFF700FC00012D18ADB2A560CE
:10313000E7E7C046F3E9FFFFFFF7FFFFFFCFFFFF21
:10314000FFFCFFFF96239B010C220360002302611A
:1031500043608360C36043618361704773B520241B
:103160000125244BFA21DA6B234E2243DA63DA6B12
:10317000490222400192019A9A6B2A439A639A6B00
:103180002A400092009ADA6A2243DA62DA6AA2439B
:10319000DA620023B362194B1868FFF7C5FB80237E
:1031A0000138F06232681648134333608023F268B6
:1031B0005B0013430222F360336893433360114B87
:1031C0001A68AA431A60C1680F4A11409C229203F0
:1031D0000A43C26019680D4A11400D4A0A431A6039
:1031E0000C4ADA600C4A9A605A68120C12041443B2
:1031F0005C6073BD0010024000140040000000201D
:103200000000014080000240FFFFC0FF0F80FFFF71
:10321000B02A00006812002018140050014B1878E2
:103220007047C04663120020334870B50378002B06
:1032300020D0324B324A0021595E13885B181BB2F2
:103240001380002917DD2F490024095F994219DDF9
:103250001478002C1CD101202B4A1368834313607F
:103260002A4A13688343136001F08CFE8022284BA6
:1032700052009A6270BD0029EAD022490024095FF9
:103280009942E5DB1F4B1B88138000230370DFE7A7
:103290006401FF212000FFF747FBFF2300225B01B1
:1032A0009C421BD011001B4E1B4D0B0082424B4118
:1032B0005B42334001339400FF3301322B51202A0B
:1032C000F3D10123104A11681942D3D10F48016884
:1032D0001943016011680B431360CBE701210A4ACF
:1032E00013688B431360094A13688B431360802271
:1032F000074B52009A61BDE7641200205C12002067
:10330000601200205E120020001400408000024085
:103310000014005000FFFF006812002010B5054B9C
:103320001B78002B00D110BDFFF77EFF0A2001F0B3
:10333000F1FDF4E7641200200E4B1A7882420DD0A2
:1033400018700D4B0D4A1B5C0D4913800D4A1288F5
:103350009B1A9AB21BB2002B01D10B707047181147
:10336000002B03DD53421B115B4218B2064B188041
:103370000123F2E762120020237801085E12002088
:1033800064120020601200205C12002010B5054B72
:103390001878FFF7D1FF0022034B1A80034B1A70F5
:1033A00010BDC046251B00206612002063120020BD
:1033B00070B5144A144B1278144D1A70EE7E144CEA
:1033C000002E06D1FFF7E2FF2378002B00D02670F5
:1033D00070BD01220F4B1A702B00CA331878FFF70B
:1033E000ABFF2378002B03D0FFF798FF0023237057
:1033F000E97E0023084A3D2902D00A234B430133CA
:103400001380E5E7621200202D1900205C1A0020CD
:10341000390000206312002066120020F8B58023D6
:10342000040008260127114D5B00AB6263B2002B3C
:1034300017DB80239B00AB62380001F0A3FD8023E3
:103440005B003800AB6101F09DFD80235B0038001C
:103450006400AB62013E01F095FDE4B2002EE5D1BF
:10346000F8BD80239B00AB61E6E7C0460004005036
:10347000F8B580228023714F714D9B005200BB61D3
:103480000600AA62C046C046C046C046C046C04606
:10349000C046C046C046C046C046C046C046C046FC
:1034A000C046C046C046C046C046C046C046C046EC
:1034B000C046C046C046C046C046C046C046C046DC
:1034C000C046C046C046C046C046C046C046C046CC
:1034D000C046C0468020BB623043FFF79FFF2B6889
:1034E00058490B402B60C046C046C046C046C04647
:1034F000C046C046C046C046C046C046C046C0469C
:10350000C046C046C046C046C046C046C046C0468B
:10351000C046C046C046C046C046C046C046C0467B
:10352000C046C046C046C046C046C046C046C0466B
:10353000C046C046C0461022002401202B6964000A
:103540005B0A0340A4B21C4380235B00AB61C0460E
:10355000C046C046C046C046C046C046C046C0463B
:10356000C046C046C046C046C046C046C046C0462B
:10357000C046C046C046C046C046C046C046C0461B
:10358000C046C046C046C046C046C046C046C0460B
:10359000C046C046C046C046C046C046C046AB62F4
:1035A000C046C046C046C046C046C046C046C046EB
:1035B000C046C046C046C046C046C046C046C046DB
:1035C000C046C046C046C046C046C046C046C046CB
:1035D000C046C046C046C046C046C046C046C046BB
:1035E000C046C046C046C046C046C046C046C046AB
:1035F000013A002A00D0A1E780232A68DB020A40B2
:1036000013432B6080239B00BB61012001F0BAFCB7
:103610008022802352009B00AA61AB610A4B302EAE
:1036200008D00A4B472E05D0094B4A2E02D07E2ED9
:1036300001D1084B1C802000F8BDC046001400508A
:1036400000040050FFFFF3FF0A00002008000020E4
:103650000600002004000020F7B5744B0C00302851
:1036600002D0472806D1724B1A88A24200D1D9E075
:103670001C8005E06F4B4A28F6D06F4B7E28F3D0B4
:10368000802680236D4F6E4DB6005B00BE61AB623D
:10369000C046C046C046C046C046C046C046C046FA
:1036A000C046C046C046C046C046C046C046C046EA
:1036B000C046C046C046C046C046C046C046C046DA
:1036C000C046C046C046C046C046C046C046C046CA
:1036D000C046C046C046C046C046C046C046C046BA
:1036E000BE62FFF79BFEC046C046C046C046C0460D
:1036F000C046C046C046C046C046C046C046C0469A
:10370000C046C046C046C046C046C046C046C04689
:10371000C046C046C046C046C046C046C046C04679
:10372000C046C046C046C046C046C046C046C04669
:10373000C046C046C04680235B00AB62F03B0193AD
:1037400023B2002B00DA6EE0AE62012001F01AFC19
:1037500080235B000120AB6101F014FC80235B003F
:10376000AB62012001F00EFC019B6400013BA4B29E
:103770000193002BE4D1C046C046C046C046C046B7
:10378000C046C046C046C046C046C046C046C04609
:10379000C046C046C046C046C046C046C046C046F9
:1037A000C046C046C046C046C046C046C046C046E9
:1037B000C046C046C046C046C046C046C046C046D9
:1037C000C046C046C04680239B00BB61C046C04681
:1037D000C046C046C046C046C046C046C046C046B9
:1037E000C046C046C046C046C046C046C046C046A9
:1037F000C046C046C046C046C046C046C046C04699
:10380000C046C046C046C046C046C046C046C04688
:10381000C046C046C046C046C046C0468022520090
:10382000AA61AB61F7BDAE618FE7C0460A00002018
:1038300008000020060000200400002000140050B2
:1038400000040050802280214D4B920010B59A61F7
:103850004C4B4900996180399A6100200902FFF7B9
:10386000FBFE00210800FFF7F7FE37204649FFF76F
:10387000F3FE22213620FFF7EFFEC621102089003B
:10388000FFF7EAFE11204149FFF7E6FE122040490A
:10389000FFF7E2FE13203F49FFF7DEFE84211420EC
:1038A0008900FFF7D9FE49203B49FFF7D5FE7B2071
:1038B0003A49FFF7D1FE7D203949FFF7CDFE482078
:1038C0003849FFF7C9FE40203749FFF7C5FEF82108
:1038D0001C20C900FFF7C0FE1D203449FFF7BCFEC5
:1038E0001E203349FFF7B8FE1F203249FFF7B4FE10
:1038F0003E203149FFF7B0FE73203049FFF7ACFEA0
:1039000077202F49FFF7A8FE19202E49FFF7A4FEC4
:10391000B42128200901FFF79FFEAA2129200902CE
:10392000FFF79AFECC212A20C901FFF795FE2C2033
:103930002549FFF791FE2F202449FFF78DFE5320E4
:103940002349FFF789FE7E202249FFF785FE4620A6
:103950002149FFF781FE4A202049FFF77DFE07201D
:103960001F49FFF779FE90211E4B1F4A33200902A1
:103970001A80FFF771FE00213F20FFF76DFE10BD9A
:1039800000140050000400501F9D00003A03000086
:10399000DB030000DF030000B22A0000DC7300003C
:1039A00020E90000A83300001635000055E50000AE
:1039B000584C00005AC60000C69400009146000012
:1039C000EF880000411000002218000090980000CD
:1039D000282000003E3000000A6000003054000043
:1039E000CE610000EA1200200090FFFF0B4B0100A7
:1039F0001B8810B5DA4392B2D20B82420CD0012060
:103A00004840C0211B05C0031B0D18438901014319
:103A100089B27E20FFF720FE10BDC04604000020C2
:103A2000C62110B510208900FFF716FE11200C49A1
:103A3000FFF712FE12200B49FFF70EFE13200A4972
:103A4000FFF70AFE842114208900FFF705FE4920B4
:103A50000649FFF701FE7B200549FFF7FDFD10BD7C
:103A60003A030000DB030000DF030000B22A00007D
:103A7000DC73000010B5094C2388002908D04022CF
:103A8000C240134399B233202180FFF7E5FD10BDFA
:103A90004121494201411940F5E7C046EA120020A0
:103AA00010B5040051200A49FFF7D6FD0720094947
:103AB000FFF7D2FD21050820090DFFF7CDFD80237A
:103AC00021021B02090D08201943FFF7C5FD10BD97
:103AD00033A00000D70A00000C4B10B5C1184B1ED4
:103AE0009941040049420A4B890A8902C9185120A8
:103AF000FFF7B2FD0748084B60430849C018FEF7BE
:103B000013FF81B20720FFF7A7FD10BDBFF5FFFF30
:103B1000409400009826030050C30000A0860100D6
:103B2000074B0100400810B5C018FEF7FDFE8021CC
:103B30008901014389B20720FFF78EFD10BDC04601
:103B4000D6DF03005C2110B5032802D8034B4000E8
:103B5000C15A4320FFF780FD10BDC0469284010882
:103B6000064A222310B5914200D81A3B8021000258
:103B7000184301433620FFF76FFD10BDFF3EAB0138
:103B800010B5040081B23820FFF766FD3920210C02
:103B9000FFF762FD10BD000010B5034900020143AC
:103BA0004720FFF759FD10BD42600000F0B5CCB2D0
:103BB00085B020001E000D0A0291FFF759FC01AFED
:103BC000FB88EDB2AB400100AE4099433143200089
:103BD00089B2FFF741FD05B0F0BD000010B53720F8
:103BE0000549FFF739FD00213020FFF735FD302072
:103BF0000249FFF731FD10BD1F9F0000F1BF00001B
:103C0000F7B51C0008AB1E78009009AB019170203D
:103C1000002115001F78FFF71FFDA0210902314385
:103C20004D20FFF719FDDE21C90139434E20FFF772
:103C300013FD210229434F20FFF70EFD009B782042
:103C40001902019B1943FFF707FD0020FFF7A4FFAE
:103C5000FFF7C4FFF7BD00000A4B012110B59842E1
:103C600002D90021013007D10420FFF703FF002112
:103C70000320FFF7FFFE10BD0420FFF7FBFE01212C
:103C8000F6E7C046FF3EAB0110B53120FFF7F0FB71
:103C90000223984381B23120FFF7DEFC10BD000003
:103CA00010B504003120FFF7E3FB0221014389B284
:103CB0003120FFF7D1FC8121C9006143034B712002
:103CC000C91889B2FFF7C8FC10BDC046DC68000007
:103CD00070B505003120FFF7CBFB0400002D06D1A5
:103CE00008239C43A1B23120FFF7B6FC70BDAB1E88
:103CF0005A1E9341AD21DB03890119432920FFF7A7
:103D0000ABFC0120A84280410549404280030143A9
:103D10002820FFF7A1FC0821214389B2E3E7C04630
:103D2000382B000010B550200149FFF795FC10BD5D
:103D300018BB000010B550200149FFF78DFC10BDE5
:103D4000183B0000802210B50C00084B5202434380
:103D50009B18590C7120FFF77FFCFFF7EBFF200049
:103D600001F0D8F8FFF7DEFF10BDC0461DA6140015
:103D700010B500213020FFF76FFCE8213720490102
:103D8000FFF76AFC10BD10B50020FFF705FF7E208D
:103D9000FFF76EFB382328219843014389B27E2028
:103DA000FFF75AFC10BD000010B500213620FFF7C8
:103DB00053FC37200749FFF74FFC52200649FFF715
:103DC0004BFC00213020FFF747FC30200349FFF770
:103DD00043FC10BD1F9D00008F020000FEC10000CB
:103DE00010B5FFF7D0FFFFF7A5FFFFF7DDFF10BD10
:103DF00010B500215120FFF72FFC10BD054B10B569
:103E00001B78002B05D001210020FFF733FEFFF7C0
:103E1000E5FE10BDE812002010B530200149FFF783
:103E20001BFC10BDFAC30000F8B51D0007000E0012
:103E30001400FFF777FF281E05D0A023802203205F
:103E4000DB0552009A61FFF7A7FEFE232102DB018A
:103E500019400133FF3319437020FFF7FDFBFFF7D3
:103E6000DBFF322001F056F880231249BFB27943BC
:103E70005B02C9187120490CFFF7EEFBFFF75AFFF0
:103E8000300001F047F8FFF74DFF002D07D0A023C9
:103E90008022DB05520000209A62FFF77DFE0021A0
:103EA0007020FFF7D9FB30200349FFF7D5FBFFF760
:103EB00041FFF8BD1DA61400FEC1000010B5032887
:103EC00007D8064940030143522089B2FFF7C4FBDB
:103ED00010BD0428FCD102490330F7E78F0200002F
:103EE0006F04000010B50020FFF7E8FF51200249E1
:103EF000FFF7B2FB10BDC0464080000010B50720A0
:103F00000349FFF7A9FB51200249FFF7A5FB10BDAC
:103F10006F0400004090000010B56720FFF7A8FA7A
:103F2000C005C00D10BD10B5FFF7F6FF4008A03862
:103F300000B210BD10B56420FFF79AFA10BD000062
:103F400010B5064B064A1B7811781B011943B023A4
:103F50001B0248201943FFF77FFB10BD961A002073
:103F6000981A002070B506000D20FFF781FA03B201
:103F7000DD430400ED0F002B07DB0E20FFF778FA7E
:103F8000034B24041C4004433460280070BDC04629
:103F90000000FF0770B5060069200D00FFF768FA02
:103FA000040003040BD46A20FFF762FA0C4B2403CD
:103FB0000005000D1C4004430220346070BD6820E1
:103FC000FFF756FA030000201A04F7D40548DB0473
:103FD000DB0C58430449FEF731FD28800120EDE752
:103FE00000F0FF00EB1200001027000010B50C20BD
:103FF000FFF73EFA800BC0B210BD10B50C20FFF7E2
:1040000037FA0005800F10BDC82010B5A021400070
:10401000FFF798FEC82064218000FFF793FEC820B8
:104020005A21C000FFF78EFE10BD0000802210B59F
:104030000C000A4B80B2434352029B18590C71206A
:10404000FFF70AFBFFF776FE200000F063FFFFF7A3
:1040500069FE322000F05EFF10BDC0461DA61400B0
:1040600070B59626C825040076006D002378002BD5
:1040700003D1642000F04EFF70BD64212E2B02D0CE
:104080002D2B03D131002800FFF7D0FF0134EDE7DD
:1040900010B5054C2000FFF7E3FF0448FFF7E0FFF1
:1040A0002000FFF7DDFF10BD707C01082E780108AD
:1040B00070B50400FFF736FE0020FFF76DFDC2214A
:1040C00070200902FFF7C8FAFFF7A6FE322000F0C1
:1040D00021FF601E08285AD8FEF710FC09003B009B
:1040E000620082008D009A00B30001010401A52046
:1040F00064218000FFF726FEA52064218000FFF7E1
:1041000021FE64210020FFF71DFEA5206421800010
:10411000FFF718FE64210020FFF714FE64217348A6
:10412000FFF710FEA52064218000FFF70BFE64213D
:104130000020FFF707FEC42064218000FFF702FE85
:10414000962100204900FFF7FDFD6421C4204000B6
:1041500043E0FA24FA25E4006D0020000521323CFA
:10416000FFF7F0FDAC42F8D1FA24FA25E4006D0027
:1041700020000521323CFFF7E5FDAC42F8D12000DC
:104180000721FFF7DFFD5A4B32349C42F7D1002163
:104190007020FFF761FA30205649FFF75DFA70BDD5
:1041A00032215548FFF7CEFD32215448FFF7CAFDB2
:1041B000C4204621C000FFF7C5FD1E210020FFF7E7
:1041C000C1FDDC202821C000FFF7BCFDC420282150
:1041D000C000FFF7B7FD64214848FFF7B3FDD6E7FD
:1041E00032214748FFF7AEFD50214548FFF7AAFDB1
:1041F00050214448F1E7F02096218000FFF7A2FD0E
:1042000096214148FFF79EFDF02096218000E4E7CB
:10421000D1213E48FFF796FDAF20D2214000FFF7A5
:1042200091FDCF213948FFF78DFDAF20D22140000D
:10423000FFF788FDCF213548FFF784FDD221AF205D
:1042400085E7E1200A21C000FFF77CFDAF200A21AD
:104250008000FFF777FD0A212D48FFF773FDC82086
:104260000A214000FFF76EFD0A212A48FFF76AFD88
:1042700096200A21C000FFF765FDC8200A21C00072
:10428000FFF760FDAF200A218000FFF75BFD0A21E8
:104290000020FFF757FDAF200A218000FFF752FDF5
:1042A00096200A21C000FFF74DFDC82014214000D0
:1042B000FFF748FDFA200A214000FFF743FD642183
:1042C0000020FFF73FFDFA200A21C000FFF73AFD6A
:1042D0000A210F48FFF736FD0A210F487DE7FFF757
:1042E00093FE54E7FFF7D4FE51E7C0460B020000EF
:1042F000F6090000FEC100001604000026050000BB
:10430000040600001E0500007B020000EE02000013
:104310004C04000014050000540B0000912310B55C
:104320009B00C1183220FFF797F910BD0222064BFF
:1043300099681142FCD00122187399681142FCD08F
:10434000D868C0B27047C0460038004010B50400BD
:10435000000CC0B2FFF7EAFF200AC0B2FFF7E6FF89
:10436000E0B2FFF7E3FF10BD70B5A0250826094CA9
:10437000ED050520AE62FFF7D9FFFF20FFF7D6FF5E
:10438000AE61C00705D50A20013C00F0FBFD002C02
:10439000EFD170BD40420F0070B5A0240825060083
:1043A000E405A5620620FFF7C1FFA561FFF7DCFF6A
:1043B000A5622020FFF7BAFF3000FFF7C7FFA56115
:1043C000FFF7D2FF70BD0000A023F7B5150008224B
:1043D0000600DB059A6203200C00FFF7A7FF300000
:1043E000FFF7B4FFC0233149DB008A681000184092
:1043F00001901A420AD10F2D0AD86519AC4250D04B
:10440000FF20FFF793FF20700134F7E7CA68ECE75D
:104410004022012080270B687F0193430B60244BCF
:104420001A6882431A60234A166886431660224E31
:1044300077601F68214E3740B446842676013E439C
:104440001E606646176837401D4E3E4316601D4E7F
:10445000DC609E605C68240C24042C435C601A4C75
:10446000D46096605468240C24042C435460174D87
:10447000019C2C7002241E6826431E601E680643A1
:104480001E6013680343136040224B681843486062
:104490000B6813430B604B681C434C602B78002B5C
:1044A000FCD0A0230822DB059A61F7BD003800404C
:1044B0004400024058000240000002400F80FFFF0D
:1044C000101000000C380040F4120020F012002000
:1044D000F0B585B06B46039002921A7B8023A0252D
:1044E0005B0001919B1AED05029C9C4200D91C00C7
:1044F00008231E00AB620620FFF718FFAE61022002
:10450000AE62FFF713FF0398FFF720FF019E3719F4
:104510000F2C5CD940220120802730497F010B6895
:1045200093430B602E4B1A6882431A602D4A16681B
:10453000864316602C4E77601F682C4E37401F60F4
:104540001768374090263E431660294F294EDE609B
:104550009F605E68360C360426435E60019ED6601E
:1045600097605668360C360426435660224EB44691
:10457000002667463E701F68023637431F601F687B
:1045800007431F6013680343136040224B681843BE
:1045900048600B6813430B604B681E434E606346D4
:1045A0001B78002BFBD00823AB61FFF7DDFE039BDC
:1045B0001B190393019B1B190193029B1B1B029365
:1045C0008023029A5B00002A8ED105B0F0BD3078BE
:1045D0000136FFF7ABFEBE42F9D1E4E700380040F8
:1045E0004400024058000240000002400F80FFFFDC
:1045F0000C380040F4120020F0120020014B18602B
:104600007047C046EC120020F0B5A0270826802194
:104610000124344BFF058FB0BE61DA6BC9010A4338
:10462000DA63DA6B04A80A400392039A9A6B0025B6
:1046300022439A639A6B22400292029A5A6B224357
:104640005A635B6B23400193019BFEF7B5FC022389
:1046500004A9059338001B19069309960795089439
:104660000494FEF757FC092304A93800023E04967F
:104670000993FEF74FFC1C4B1C4A9968802011409F
:10468000A022D2040A433F219A60DA68C0058A4317
:10469000C2211643164ADE60890053581B021B0ACA
:1046A0000343535080231B01136004A8FEF7CAFC88
:1046B00082235B000593033B0894FF3B0D4C07935B
:1046C000FF33FF33200004A9099304950A950B9545
:1046D0000C95FEF783FC40232268134323600FB040
:1046E000F0BDC0460010024000000140FFFFFFC0C7
:1046F00000E100E000380040802310B55B029842E2
:1047000002D2034B1B68C018FFF75EFE10BDC04607
:10471000EC120020F0B587B00593802304000191CE
:1047200002925B02984202D23A4B1B68C4182305DE
:104730001B0D03938023039A270B5B013F039E1AF3
:10474000029B002B03D1FFF70FFE07B0F0BDFFF770
:104750000BFE029DB54200D935002F4E3368BB4297
:1047600006D0802238002D495201FFF72DFE376018
:104770002A4E039B2A009E193100019812F0BDFFBA
:1047800000282CD00023019AD15CF25C0A409142AF
:1047900033D101339D42F6D100232A003000019924
:1047A000049312F08DFF049B002B2FD03800FFF7ED
:1047B000F3FDFFF7D9FD194B0493059B002B1ED089
:1047C000039B38005E1932000499FFF781FE8022B6
:1047D000049B5201FF21921B981912F053FF019B79
:1047E00064195B190193029B5B1B029380235B019D
:1047F0001E00FF1800230393A2E70123CDE78022C8
:10480000380004995201FFF763FEE8E72A00200010
:104810000199F8E7EC1200200C000020240200208F
:10482000802310B55B02984202D2094B1B68C01866
:10483000000B04032000FFF7AFFD064B1B68A342EB
:1048400005D18022FF210448520112F01BFF10BD48
:10485000EC1200200C000020240200208022024BD9
:1048600052041A607047C0460C00002080201C498A
:1048700080010B6810B5034230D00224194B1A682E
:1048800022422BD01A68A2431A6048600A2000F026
:1048900079FBC021144A154B49019868084202D09F
:1048A000013A002AF9D180210F4A9868084202D0C3
:1048B000013A002AF9D1C0210B4AC9009868084280
:1048C00002D0013A002AF9D102215A688A435A607B
:1048D0005A6801398A435A60054B197010BDC046A9
:1048E0000000024044000240112700000038004050
:1048F000F012002070B540262025094C0120A66149
:1049000000F040FBA561012000F03CFBA662012005
:1049100000F038FBA562012000F034FB70BDC046FA
:104920000014005070B540252026094C0120A562D6
:1049300000F028FBA662012000F024FBA661012004
:1049400000F020FBA561012000F01CFB70BDC046FB
:1049500000140050F7B5234C234A236801901340FC
:104960002360082300252027012600933000A7623A
:1049700000F008FB3000A76100F004FB300000F0FD
:1049800001FB23696D00EDB25B0600D535433000B5
:10499000A76200F0F7FA009B013BDBB20093002B0B
:1049A000E4D12268104B01201A4080235B0113439D
:1049B0002360A76200F0E6FA019A4023002A0ED095
:1049C000A3612026012000F0DDFAA661012000F09D
:1049D000D9FAA662012000F0D5FA2800FEBDA36234
:1049E000EFE7C04600140050FFCFFFFFF8B52023CB
:1049F000264C0500A362012000F0C4FA08266BB221
:104A0000002B3EDB4023A3622027012000F0BAFAEE
:104A1000013E0120A76100F0B5FA6D000120A762F8
:104A2000F6B200F0AFFAEDB2002EE8D140252368CF
:104A3000174E012033402360A56100F0A3FAA7615F
:104A4000012000F09FFADF3723691A002A402B4229
:104A50001AD0013F0120FFB200F094FA002FF3D1E9
:104A600001256D422023A362012000F08BFA8023F0
:104A700022685B0132401343236040232800A36176
:104A8000F8BD4023A361BFE71500EBE70014005019
:104A9000FFCFFFFF70B504000D0000266A1EB24272
:104AA0000EDC2B00591E8B415B4213400120E418A1
:104AB00000F068FA0120FFF74DFF2070280070BD5C
:104AC000012000F05FFA0020FFF744FFA0550136F7
:104AD000E4E770B504004518AC4201D1002070BD78
:104AE0002078FFF783FF01340028F5DA01204042E7
:104AF000F5E700007823F7B50024204DAB610026D0
:104B00000823370001930A2000F03CFA3A00F0270E
:104B10002B693F021F40974212D1012E18D0012667
:104B2000019B013B0193002BEDD10134052C0DD0ED
:104B300078230122AB61713B1B1B9A40AA62DEE71E
:104B40000026EDE7320010E002220EE0132012E012
:104B500080211A0009020A400B4206D05A04F1D5FE
:104B60009A04F1D50322DB04DFD4054BA1005B18C6
:104B7000985C1328D9D07823AB61FEBD00040050A7
:104B80009A84010810B5FFF7B5FF132804D1034B31
:104B90001B695B0500D4033810BDC04600040050FB
:104BA0000022034B1A70034B01321A707047C04643
:104BB000F8120020601900200222054B996811426A
:104BC000FCD00122187399681142FCD0DB68704751
:104BD0000030014070B51D0004AB00241C5F431A77
:104BE000601B5843511AFDF729FF401900B270BDF0
:104BF00070B5124CC001241825000C203635260053
:104C000028701225373635704236357025007A35D2
:104C10002870581A8001511AFDF710FF21253823FA
:104C20002D263830C0B2DAB22900904200D33100CC
:104C3000E1540133792BF6D170BDC046FC1200203F
:104C40007047A02340225039DB0510B59A6204005A
:104C5000C8B2FFF7B1FF102023091843FFF7ACFFDC
:104C60000F202040FFF7A8FF10BDF8B51400043056
:104C7000C0B21D00FFF7E5FFA02340222600DB05A0
:104C80009A612F19BE4200D1F8BDE8B2002C00D0C5
:104C90003078FFF791FF0136F4E7000070B5042586
:104CA000034CC9B2A562C0B2FFF7DFFFA56170BDBA
:104CB00000040050F7B50423A02700240C4E0190F7
:104CC000FF05B36221000420FFF7BBFF40238025CE
:104CD000BB61013D0198EDB2FFF76EFF002DF8D1E9
:104CE0000134E4B2082CEDD10423B361F7BDC04612
:104CF00000040050A023402210B5DB059A62FFF7A4
:104D00005BFF10BDF8B50423124E0400B3624020CF
:104D1000FFF7F0FF104A002C07D0104B01251F00B1
:104D2000072C0AD8621ED201D2188023210000204D
:104D3000FFF79BFF0423B361F8BD290001353A005A
:104D400080230020EDB2FFF790FF8037082DF4D1CB
:104D5000F0E7C046000400507C160020FC12002042
:104D600010B50820FFF7CEFF10BD10B50130C0B25E
:104D7000FFF7C8FF10BD10B50020FFF7C3FF10BD3F
:104D800010B5032804D0072809D0074B185C03E0AE
:104D9000064B1878A6231843FFF7ACFF10BD044B51
:104DA00018781530C0B2F7E7AE840108441A002025
:104DB0004A000020042370B50024064DAB62200099
:104DC0000134E4B2FFF7DCFF0B2CF8D10423AB6114
:104DD00070BDC046000400500422074B10B5E2200D
:104DE0009A62FFF787FF002420000134E4B2FFF746
:104DF000C7FF082CF8D110BD00040050802170B509
:104E00000125414B49011A6C8CB00A431A641A6C93
:104E100002A80A400192019A5A6B00242A435A635D
:104E20005B6B02262B400093009BFEF7C5F8032323
:104E3000A020049302A91D33C00502930695039692
:104E400007940594FEF766F8A020802302A9C00508
:104E500002930694FEF75EF802A8FEF7F3F88223A9
:104E60005B0003930695FC33284D0793F93BFF3B0A
:104E700002A92800089302940494059609940A94C0
:104E8000FEF7ACF840232A68AE2013432B600423BE
:104E90001F4DAB62FFF72EFFE220FFF72BFF7820BC
:104EA00000F038F820000134E4B2FFF769FF082C65
:104EB000F8D12B20FFF71EFF012000F02BF82E2049
:104EC000FFF718FF012000F025F82F20FFF712FF51
:104ED0002F20FFF70FFF2F20FFF70CFF2F20FFF7EA
:104EE00009FF2820043C00F015F84020FFF702FFDE
:104EF0000020AC61FFF7DEFEAF20AC62FFF7FAFEE8
:104F0000AC610CB070BDC0460010024000300140E2
:104F100000040050FA2310B59B00584300F032F80B
:104F200010BD0000124B70B51D6864212800FDF70C
:104F3000FBFC802301380F4C5B0498420CD2C0214B
:104F40000D4A09065060236A1B021B0A0B432362A9
:104F5000002393600733136028000849FDF7E4FC41
:104F6000074E3060236A1B021B0A236270BDC046D5
:104F70000000002000ED00E010E000E040420F00E3
:104F8000FC1600200B4B70B51B680B4C58430023DC
:104F90006568A268834200D370BDA1688A4203D9C4
:104FA0009B185B1A0A00F5E78A42FBD26E1AF318C7
:104FB000D318F7E7FC16002010E000E00123024AB6
:104FC00011784B40137070473B1A002070B50C4BA2
:104FD0001B6831331C78012C0AD10321094D287834
:104FE0000130FDF711FE2970200004F087F970BD33
:104FF000002CF9D1044D052128780130F1E7C04695
:10500000501A0020490000203E1A0020064A10B520
:105010001378002B03D00549054B0978D976002376
:105020001370FEF7C5F910BD2F1900202E190020AE
:105030005C1A002070B5104B1D78022D08D003F0CB
:10504000D9FF012004F072F8022000F0F9F970BDD8
:1050500000220A4B01201A7004F068F8084B094C32
:105060001B78002B03D008F0CFFD2570EFE7064B2F
:105070001B782370EBE7C04608170020381A002081
:10508000A921002080000020E91B002010B50C4C55
:105090002268110028310B780133DBB2022B00D9D2
:1050A00000230B70074BD08BD979022305F008F948
:1050B000206803F07DFD044A044B12781A7010BD7D
:1050C000541A00205C1A0020E91B002080000020F8
:1050D0000122064B1A80064B1A68313213780133CD
:1050E000DBB2032B00D10023137070474C19002052
:1050F000541A002070B506000D001400FFF750FD93
:10510000112E20D0122E05D00A2E23D000239C422F
:1051100005D115E0124B002C10D033331B78002D35
:1051200010D0104A1278002A03D0022B0AD0052B87
:1051300008D00D4A9B009B58984703E032331B78F8
:10514000002DEED070BD064B002C01D03533E5E7C5
:105150003433F4E7054B002CE0D12300F0E7C046E0
:105160005C1A0020A921002014000020241B00202C
:1051700070B5104B1B78013B012B0DD900240E4B51
:105180000E4D1C700E4B1B78A34206D008F008FD94
:1051900001220C4B2C701A7070BD0B4A137003F077
:1051A00029FF012003F0C2FF08F02EFD02232B701F
:1051B000F2E7C04608170020481B002080000020AE
:1051C000A921002051190020381A002070B503F0E1
:1051D0000DF80F4B041E00D10E4B1A6811002B3135
:1051E0000D7831326B426B41D8B2087011780129C9
:1051F00003D10320FEF7A6FC70BD002C06D00020D2
:10520000854203D1044B18780130C0B20021F1E788
:10521000501A0020541A00203D1A00200D4910B5E4
:105220000A780D4B002A09D1D87E0C4A10703D2215
:10523000DA7601230B70FEF7BBF810BD1900084A9F
:10524000CA3109781278914202D10022DA76F2E767
:105250003D22FBE72F1900205C1A00202E190020A8
:105260002D190020F7B5514B01931B78002B17D156
:105270004F4F3B785A1E022A19D84E494E4A087899
:10528000002803D04D480078002806D01078002868
:105290000DD04B480078002809D100230B70137003
:1052A000012003F043FF0122464B1A7013E0464AE7
:1052B00001241278454E002A03D03278002A0BD000
:1052C00000243378424D002B67D1002C65D12B7818
:1052D000002B42D12C70F7BD012B27D019D9023BEE
:1052E000012BEDD83B4B1978334B00292DD03A498F
:1052F0000978012929D11A70384D2B78002BDFD07D
:10530000FEF77BFE441E63425C41002364002B7069
:10531000D7E7334B5B7C002BD2D0304B1B78002B74
:10532000CED000222D4B02241A70CAE72D490878EE
:105330002049002801D00A70EFE70A78002AECD152
:105340000B701E4B64321A70E7E71A78002AD3D12B
:1053500001321A701A4B6332CDE7214B1B7E002BB2
:10536000B8D03B78023B012BB4D8FEF746FE0128AB
:10537000B0D11B4B1B7E002BADD0A0238022DB05C0
:1053800052009A62184BEC3A1A800023019A13706B
:1053900001223270154A13709DE700232B70012CF7
:1053A00000D17DE7022CE4D095E7C04632190020F9
:1053B0004B1A00205F1900205E19002034190020CC
:1053C0003519002037190020401900205D190020F0
:1053D00033190020441900204319002041190020EE
:1053E0005C1A00204219002068190020651900206D
:1053F0000A4B10B51B78002B03D0094B1B78002BF0
:105400000AD1084B1B78002B06D0074B1B78032BC7
:1054100002D0032002F0B8FF10BDC046A921002031
:105420009D2100204019002008170020034B10B5D3
:105430001B78002B01D1FFF7DBFF10BDE812002025
:10544000E12270B52D4B2E4D5201AE791A802D4BB5
:1054500004001B78002B09D02B4B1B78002B05D1A7
:105460002A4B1B88002B01D108F0C2F8724256412A
:105470000022274B9A55A0230132DB05FF329A61A7
:10548000244BFF3A1A70244B1B789B0701D5FDF77C
:105490008FFFAB7D002B15D0E31E012B12D8802689
:1054A0001E4DB6013220AE61FFF734FD1420AE620E
:1054B000FFF730FD3220AE61FFF72CFD1420AE6205
:1054C000FFF728FDFEF73CFD154B1B6831331878BC
:1054D00003F014FF200002F057FF022C0AD1114BF9
:1054E0001B78012B02D0002006F0B8FE01220E4BE3
:1054F0001A7070BD01220D4B1A70F7E76A1900206F
:105500005C1A0020A92100209D210020A02100205C
:105510005B19002065190020471A00200008005080
:10552000501A0020E91B00206019002037190020C4
:105530001B4B10B51878002809D11A4B1B78002B8B
:1055400004D002F021FF0122174B1A7010BD174B37
:105550001B785A425A411649D2B20978002905D01F
:10556000012B03D10020134A10700A001249097858
:10557000002912D01149097801290ED1023B012BD3
:105580000BD800220E4B1A700E4B04201B78002BF8
:1055900000D00238FFF754FFD8E7002AF4D1D5E74E
:1055A0004019002008170020371900204B1A00204E
:1055B000421900205F1900204419002043190020DF
:1055C0005E190020381A002070B51C00838B16006D
:1055D0005943026805008818190002F07DFDA042B9
:1055E00006D8B04203D2A98B601A02F075FD70BDD7
:1055F0003000FCE710B5024B024AFFF7E5FF10BD93
:105600000005EA06C05C150010B503F0F7FF0122A3
:10561000044B1A70044B1B78002B01D0034B1A70FB
:1056200010BDC0463C190020381A00205119002036
:1056300037B56B469D1C290001A8FEF7ABFC041E84
:105640000FD002280ED1019802F0C4FCFF2808D028
:105650000122154B1870154B1C70154B1C70154B07
:105660001A7037BD0128FCD1288802F0E1FCFF2820
:10567000F7D00D490D4C0B780F4A834211D1257894
:10568000012D0ED113780133DBB21370012B04D935
:105690000222074B1A70074B1D70012308702370FC
:1056A000DFE700231370F8E703170020021700203C
:1056B000011700206019002000170020094B70B569
:1056C0001B78094C094D002B03D123782A7813430A
:1056D00007D0FFF765FA002301222B702370044BDB
:1056E0001A7070BDF812002064190020481B0020B9
:1056F00037190020F0B5B44B85B006000C0015003A
:1057000002930D280BD1FDF789FD002807D1029BDC
:10571000DB7E002B03D0FDF74BFE05B0F0BDAB4B9D
:105720001B78052B02D1002002F02EFEA84B1A8810
:10573000A84B1A80029B2E331978002903D01E2211
:105740004A43A54B1A70002C00D0E1E0A34F3B78F0
:10575000002B02D004F0EAFB3C70A14F3B78002BF9
:1057600003D004F00FFC00233B709E4F3B78002BCE
:1057700003D004F0ADFB00233B709B4F3B78002B24
:105780000FD09A4B1A68029BD08BD979012304F071
:1057900097FD00233B70964B1A78002A01D1013205
:1057A0001A70944B1A7800239A4207D0924A1278C2
:1057B0009A4203D1914B1B785A425341029A904925
:1057C000D27C09781A43002900D1C9E0002A04D00C
:1057D0007E4A1278012A00D0CDE0102E00D0F1E0F0
:1057E000884B1F78002F04D02F00002C01D10127F7
:1057F0001C70854B03931B78002B05D0102E01D015
:105800000D2E01D1FFF7CCF9804B0193002F0AD167
:105810006E4B1B78012B00D035E1102E00D019E122
:10582000200000F0E1FE7A4E7A4A33780392002B92
:105830000AD0794A794B12781A8001F0B1FC012321
:10584000039A137000233370754E3378002B09D000
:10585000002D00D03AE104F095FB002301223370C3
:10586000704B1A70704B1A78002A06D000221A70FA
:10587000954200D02EE104F02BFB6C4B1A78002AE5
:1058800006D000221A70954200D027E104F04EFBAA
:10589000674E574F3388002B13D0002D00D021E1E5
:1058A000002C00D01EE1514B02991A68C979337857
:1058B000D08B04F005FD3B78002B00D129E10023BB
:1058C000338039785B4C002900D125E1002003F0BA
:1058D00065FA019B1B78FF2B02D10023019A1370FC
:1058E000012323700023544A3B70137003F082FBA2
:1058F000012003F01BFC0022504B22701A705A70DA
:105900004F4B1B78934200D10AE1FFF793FB07E16D
:1059100005F0C4FE394F102E03D14A4B1B78DB072C
:1059200015D53B78012B04D10F2804D0113801285C
:1059300001D9FDF73DFD0D2E09D1002D07D0FFF750
:10594000BDFE3F4B1B78002B01D0FFF773FB3B786C
:10595000012B00D025E7304A304B12781A8020E71F
:10596000002A00D139E7194A1278012A00D134E718
:10597000102E00D134E70D2E0BD1002C00D1CCE637
:10598000002B00D1EEE001221B4B1A702E4B1A7037
:10599000C3E60F2E0AD1002C00D1BEE6002D11D196
:1059A00004222A4B1A70284B033AF0E73300113BCC
:1059B000012B07D90A2E00D0D1E0002D02D1002CF6
:1059C000EED0AAE6224B0CE75C1A00200817002054
:1059D000C89201084000002063190020061700202B
:1059E000051700204519002004170020541A002034
:1059F000501900201117002010170020E91B00206B
:105A0000411A002054190020F812002080000020C4
:105A10004719002046190020D49201085619002089
:105A20004A19002060190020491900204E19002051
:105A30004C190020511900204F1900205B1900203B
:105A4000381A0020471A0020371900205219002068
:105A500055190020002C10D1A0238022DB05520014
:105A60009A62424B1C70029BCE331878002807D0F4
:105A70000138C0B2FEF714F9D5E6002D00D0D2E609
:105A8000FEF702F9CFE63A4B1B78FF2B07D0320026
:105A9000113A012A09D8039A1278002A0ED12A0055
:105AA00021003000FFF726FBBDE60D2E06D1002DAC
:105AB00004D1002C02D0019B1D70B4E62D4A9B003E
:105AC0009B5821002A0030009847ACE601222A4B5F
:105AD0001A70C2E60122294B1A70CEE60122284B29
:105AE0001A70D5E605F0DAFD002804D0204B1B78AB
:105AF000012B00D1D7E63288224B511E8A411A7001
:105B0000019B1B78FF2B00D0D9E60023019A13706C
:105B1000D5E601233B70D2E62378002B00D0E5E6E2
:105B2000039B1B78002B08D00023039A1370164A9E
:105B3000164B12781A8001F029FD154C2378002BA2
:105B400003D003F0E5FC00232370019B187806F0D6
:105B500085FBFF23019A137001220E4B17E7002CDF
:105B600000D1DAE5002D00D11AE7D6E5651900204D
:105B7000E91B00202C0000200517002045190020FB
:105B80000617002004170020D4920108561900209F
:105B90004819002037190020F8B5012007F06EF9E8
:105BA000002802D0012007F045FA824D2B78012B06
:105BB00000D082E0804E3378002B34D17F4B1B78AD
:105BC000002B30D17E4B1A78002A03D17B4A127801
:105BD000002A72D000221A707A4B1A887A4B002A57
:105BE00002D1DA7E3D2A03D1CA331878FDF7A4FB2F
:105BF000C8220024754B920034701A80744B1B78B5
:105C0000A34208D0734E3378012B00D0B0E00233AA
:105C10003370FFF7E1F8FFF7F7FC042003F056FCC0
:105C200006F00EFB49E06C4F6C4C3B78012B0ED913
:105C3000654B2268D97E002927D1002A01D0FA2A93
:105C400005D18023664A9B0151694B40536123680B
:105C50003A7801332360032A25D15B4AD27E002A99
:105C60001FD0604A934225D900232360FEF70CF829
:105C70000123564C1A0020881E2180B2FEF7D4F86A
:105C8000238864339BB2238014E0002A04D1CA33F2
:105C90001878FDF751FBDAE753498A42D7D1C93367
:105CA000F6E7524ADEE752498B4203D900232360CC
:105CB000012ADBD02B78012B84D04E4B1B78002B94
:105CC00055D12B78012B03D04B4A9B009B5898470A
:105CD0004A4E3378002B03D0494B1B78002B46D11A
:105CE000484F3B78002B0AD0474B1B78002B06D03F
:105CF00002F07CFA041E02D107F0B2FE3C70434C65
:105D00002378002B1CD0424B1B78002B12D1414B27
:105D10001B78002B0ED12C4B9B7E002B0AD03E4BC8
:105D20001B78002B06D13D4B1B78002B02D133781A
:105D3000002B2CD03A4B1A883A4B1A800023237040
:105D4000394E3378002B12D02B78052B0FD1374DDD
:105D5000374F2C78002C1ED0FEF750F802F052FA84
:105D6000344B1B883B8000232B7000233370F8BD1D
:105D7000022B00D04DE7220021001020FFF7BAFCD3
:105D80000122234B34701C702B4B1A7041E7052005
:105D900002F0FAFAD2E70A220B4B9B7E53433B8078
:105DA00001232B70FDF7E4FF21002000FDF762FEC8
:105DB000DBE7C046081700206C190020841900207A
:105DC00070190020661200205C1A00203C000020A0
:105DD0003B1A00202C190020451A00202819002009
:105DE0000008005010210100983A0000983401008A
:105DF000E02801005A190020BC840108A9210020D4
:105E0000A821002031190020A4210020851900209C
:105E10003A1900203B19002058190020E91B0020E6
:105E2000C89201084000002086190020E8120020D6
:105E30000A170020C69201085519002000221020E0
:105E4000110010B5FFF756FC0022064B1A70064BE6
:105E50001B78132B02D0054B01321A70FEF7BCFFE2
:105E600010BDC0463A19002010000020551900202E
:105E7000F8B5664B00201978654BC9B21B695B0504
:105E800001D448424841634B1A78634B002A50D0F2
:105E9000624C022522781600AE4300282DD1012E37
:105EA0002DD118780130C0B2187002282CD80029E2
:105EB00007D0002A05D000221A70FFF7BFFF002389
:105EC0002370FEF717FE0400132802D00022544B63
:105ED0001A70544E544D3378A3424BD0132B08D034
:105EE000132C06D0514B00211A78514B1878FFF72C
:105EF00001FC002334702B80F8BD002ED1D0002986
:105F0000CFD100221A70DCE700201870824209D13C
:105F10000121434B21701A70464B10301970FFF766
:105F2000E9FBCEE7032AC8D00029C6D1013222708E
:105F3000C7E7404C2278002A0DD00028E1D11A781A
:105F40000132D2B2022A01D80029DBD000221A7015
:105F5000FFF774FFB5E70028D3D019780131C9B233
:105F600019700229ADD92E4910200A7001211A702A
:105F70002170D4E72888304B01301B8880B22880FC
:105F8000834215D1294E2A4D132C0AD12878132883
:105F900004D000213278FFF7ADFB2C700023337062
:105FA000AAE70022012120002C70FFF7A3FBF5E7F0
:105FB000224B1E88B0429FD3132C9DD0B04209D1F2
:105FC000102C99D00121194B0A0020001970FFF7FD
:105FD00091FB91E723000B3BDBB2012B0ED801278D
:105FE000124B1F70164B1988FCF724FD89B200294B
:105FF00004D13A0039002000FFF77CFB2A88114BBE
:106000009A4200D078E701362E8075E78419002087
:10601000000400503B1A0020391900202C190020E0
:106020003019002011000020FA1200203B19002036
:10603000100000203A190020CA920108CE920108EF
:10604000CC920108FFFF0000F7B50024564B1C70EE
:1060500003F078FFFDF7E8F8544F20003B88013348
:106060009BB23B8006F00AFFA04202D0200006F05F
:10607000E1FF4F4B1B78002B4BD14E4B01931B780C
:10608000052B00D087E04C4B1B78002B00D182E021
:106090004A4B1B78002B00D07FE0494C494E2378B7
:1060A0003578002B03D00023237006F0C9F8002DAB
:1060B00001D005F091FF444D2B78002B03D0434BCA
:1060C0001B78002B25D1019B1F78012F0CD1404B51
:1060D0001878002808D00138C0B21870002803D101
:1060E00002F052F9377027702B78002B0DD0394A07
:1060F0001388002B09D0013B9BB21380002B04D1E5
:1061000007F082FD022006F0A9F8FFF791FAFFF7E9
:10611000AFFEF7BD00210220FDF79EFA0220FDF739
:10612000A7F904230604360E04001E4201D02A4BB0
:106130001D702E4205D0294B1D70FDF757FF284BCF
:106140001870B60702D50022244B1A70E6B2630617
:1061500001D5244B1D70240602D50022214B1A7054
:1061600004231E4209D0204B012105201D70FDF79C
:1061700081FCE1221D4B52011A80360705D5002112
:10618000194B05201970FDF775FC0C20FDF770F90F
:106190002842BFD17CE70125F7E73B88DB0700D524
:1061A0007BE704F08BFE78E7361900203E190020CB
:1061B0005A19002008170020E81200203A1A00207F
:1061C0003719002060190020A9210020A8210020F3
:1061D00062190020A021002041190020441900204C
:1061E0004319002042190020401900206A1900209C
:1061F000F7B50022934B1A70934A1378002B07D0FF
:10620000013BDBB21370002B02D101228F4B1A70BD
:106210008F4A1378002B1BD0013BDBB21370002B8D
:1062200016D18C4B1A688023D28BDB009A420AD29B
:10623000894B1B78013B022B05D8884B1B78002B20
:1062400001D100F08DFBFFF739FA0022844B1A7060
:10625000844E3388002B28D10023834A019313787E
:10626000002B2ED105F01AFA804A1388002B2FD16B
:106270007F4B1C78002C48D07E4C7F4D210028009D
:1062800001F05EFEFA2322885B009A4204D87B4B21
:10629000DA882B889A421AD2BFF34F8F784B794A0B
:1062A000DA60BFF34F8FC046FDE7013B9BB23380FE
:1062B000002BD1D1744B1B78013B5A425341DBB2C6
:1062C000CBE7013B1370654B1B78002BCAD0F7BDA1
:1062D0006E4909780029CBD16D4909780029C7D1C9
:1062E00069490978012904D10F28C1D01138012842
:1062F000BED9013B9BB21380002BB9D1654BDB7E2D
:106300003C2BB5D8FDF742F8B2E7634F634A3B88B0
:10631000127801339BB23B80012A12D0DB0710D4E4
:106320005F4D54492878431C2B705E4B4000C018C9
:1063300001F006FE2B78032B00D92C70012002F00F
:10634000A3F83B889B070AD1574B1B78002B03D13E
:10635000564B1B78002B02D00122554B1A704C4B28
:106360001B78002B47D1534B1B78002B03D0474B96
:106370001B78002B3FD0504B46491B78002B10D088
:106380004E4A1378002B0CD03F480078012808D0E3
:10639000013BDBB21370002B03D1454A0133CB74B0
:1063A0001370019B002B26D00023338005F076F973
:1063B000354B1B78012B06D10F2802D0113801284C
:1063C00001D8FCF7F5FFFEF7EBFB00230125224A7D
:1063D00013702E4A13703A4A13701C4B1D701F4BDA
:1063E0001B78002B04D001F001FF45406C00E4B2A3
:1063F000200005F033FF334B1B78002B1CD1324BB0
:106400001A78002A18D018780138C0B218700028FD
:1064100012D103F05BF8114B1B78002B0CD001F06C
:10642000E5FE002808D1294B1B88002B04D107F07A
:10643000EBFB022005F012FF02F0D0F804F098FE0A
:1064400045E7C0467E190020521900203719002068
:1064500064190020541A0020481B0020A9210020A4
:106460005319002056190020A82100206612002090
:106470005A1900202017002022170020241700207E
:1064800000ED00E00400FA05E91B0020E71B0020F6
:10649000581900205C1A00200E1700200817002051
:1064A000591900201817002013170020391A00204E
:1064B00060190020A42100208A1A002063190020FE
:1064C000E61B00203A19002066190020A0210020B8
:1064D000074B1B78012B0AD0064B1B78012B06D0EB
:1064E00001220549CB7C5340CB74044B1A70704792
:1064F000E91B0020081700205C1A00204A19002020
:1065000010B5114A1378002B03D0002313700F4AE3
:1065100013700F4B0F4C1A688023D28BDB009A420A
:1065200007D2238001220C4B1A700C4B92181A7060
:1065300010BD002301211A00A08802F005FB084BC2
:106540009842F5D02080EDE7481B00205319002029
:10655000541A00205C1A00204E1900205019002007
:10656000FFFF000010B5174B1B78002B21D1164BF5
:106570001B78012B1DD0002917D100281AD1134AEE
:106580001278002A01D1002B01D0022B11D1012356
:106590000F4A11784B40137003D00E4A0E4B1278FD
:1065A0001A700E4B01221A7003E0002801D0FFF789
:1065B0008FFF10BD022BFCD1094B1B78002BF8D0AC
:1065C000084BEFE7481B0020E91B0020A921002011
:1065D000F8120020D09201086419002060190020F0
:1065E000A4210020551900200022194B70B51A7003
:1065F000904204D0174B1B78DCB2934221D0164B4B
:106600001B78012B11D1154D2B78002B0ED00020BB
:1066100001F0BAFE002420002C7002F057FF104B4E
:106620001B78012B01D00F4B1C7070BDFEF7ECFFE7
:106630000D4B19780029EAD00A224A430B4B1A70F5
:10664000E8E708F00BF9074B1C70094BECE7C04674
:10665000481B002084190020081700203C19002046
:10666000E91B0020800000208D1A00206219002004
:1066700039190020F0B5984B89B01B78012B19D03F
:10668000122800D926E1FCF739F91300250117007B
:10669000150015001500E000EB00F60015002501BF
:1066A0001500150025012501250125011901FB0013
:1066B000FEF75EFD09B0F0BD8022884FD2003B6836
:1066C000DE8B964200D382E08549721C04A806F056
:1066D00077FA844880220021040010F0D3FF802242
:1066E0000021814810F0CEFF0823742200930C2172
:1066F000063B04A803F04CFF802523782200DB43EF
:10670000803223701378013DDB43EDB21370013406
:10671000002DF2D1754880222900040010F0B2FF4C
:1067200080222900724810F0ADFF082374220093E4
:106730000C21043B6F4803F02BFF802322782100BB
:10674000D243803122700A78013BD243DBB20A7017
:106750000134002BF2D10220FEF707FB0320FEF7E5
:1067600004FB0420FEF701FB96240520FEF7FDFA4A
:1067700064000A20FEF7CEFBFEF7BCF90A280BD016
:10678000132802D1013C002CF3D100225A4B1A707D
:106790005A4B01321A708DE700220224110030009A
:1067A00003F064FD02F072F90122554B55481C704C
:1067B000554B1A7004F08CF92000FEF7D6FA03202E
:1067C000FEF7D3FA96208000FEF7A4FBDDE79642A1
:1067D00000D06FE71B691B680393039A4B4B9A42E7
:1067E00000D867E7012400256442A8B203F036FB15
:1067F000039B834219D12C00454B3A68D979A0B24A
:10680000022303F05DFD02F041F94249621C04A835
:1068100006F0D6F904A804F05BF90220FEF7A5FA09
:106820000320FEF7A2FAC820CDE7631C03D101388C
:10683000033000D92C000135B542D6D1002CDBDA6B
:10684000354804F045F90220B7E70122334B1A70AE
:10685000334B92181A700CF07FFD274B002299E7FA
:10686000002402222D4B1C702D4B1A700CF074FD6D
:10687000214B1C701EE70222284B1A70284BE9E7B7
:10688000164C23680833D87F01F0EEFBC0B21628FF
:1068900006D825680130C0B201F0E0FB0835E87782
:1068A00080232268DB00D28B9A4202D101221D4B49
:1068B0001A80134B01221A701B4BCFE7074C236839
:1068C0000833D87F01F0D0FBC0B20028E8D025689B
:1068D0000138E0E7154BEDE7E91B0020541A0020D2
:1068E00032780108FC1300207C140020FC140020E6
:1068F0007C1500203D780108800000203719002019
:1069000050190020457801084F1900203F420F0020
:106910005C1A00204D7801085878010808330020DF
:10692000881A00204C190020F8120020601900205D
:10693000002210B51100040002F0CEF800280AD0A1
:106940000221054B00201C809C80044B197002F032
:1069500025FA03F0EBFA10BD5C1A00205019002054
:10696000144B70B51A688023D28BDB009A4220D278
:1069700000230A2518001049104E0A78DCB2A24202
:1069800009D800280DD1042A13D1002301220B704D
:106990000B4B1A7007E06843F45C0133001980B2B6
:1069A000ECE7042AF1D0013880B2FFF7C1FF03F011
:1069B000BDFA70BD541A0020481B0020521B002055
:1069C00064190020F8B5AD4F04003B780D001600A7
:1069D000002B0CD0102800D15FE20D2800D10AE274
:1069E000002A00D075E2002900D15AE2F8BD122831
:1069F000FCD8FBF783FF13001300130013001300F0
:106A0000130013001300130013001D01A501A501BD
:106A1000000236024D02520213001300002A00D178
:106A2000CCE0002DE2D0964B1D78002DDED1954BA9
:106A30001A78002A02D01D70934B1D7004F026FABC
:106A4000002804D004F096F900228F4B1A70FEF74C
:106A5000A7F8092CCAD82000FBF73CFF052E3D63A0
:106A6000604066709DA68025884CED002368DA8B17
:106A7000AA42BBD21A69DE8D854B17681D8003F0D0
:106A800055FA02F0B7FA2268F6B2136900211F60C6
:106A9000536928001F600223D68503F011FC20688B
:106AA00002F086F8012002F041FB0222794B1A70B5
:106AB000754B00221A7099E7754A537C082B01D850
:106AC0000133DCB254740123724A1370724A13709A
:106AD000724A1370ECE7FEF779FBE9E76B4C236829
:106AE0000833D87F01F0C0FAC0B2162801D80130AF
:106AF000C5B22800266801F0B1FA226808361100F4
:106B0000F0770831C97F664B4900CB5AD08B93830D
:106B10005F4BD979022303F0D3FBD4E7FEF7B6FA33
:106B2000C6E7FEF7D5FAC3E701245A4B1C70FFF7FE
:106B3000E7FC5C4B1C7003F0F9F957E7534C2368F2
:106B4000D88B8023DB00984214D201F021FF037818
:106B500001007F2B10D97F22134003702368D88B4C
:106B600001F006FF01224B4B1A704F4B1A700022A6
:106B7000454B1A704D4B9CE721680A002C32137864
:106B80000133DBB2332B00D81D001570C88B0122F6
:106B900003F06CFBE6E701233D498A7D5A408A7584
:106BA000434A13703C4A94E7424B1B78002B02D0B7
:106BB000FEF72CFA1AE7FEF731FB17E7002900D0A1
:106BC00014E73A4A1378002B07D000231370FDF71F
:106BD000E7FF2000FFF74EFD08E72B4A13702B4B11
:106BE0001B68DA8B8023DB009A420BD2200004F072
:106BF00085F8314B314D1C782C70A408FFF7B0FE9E
:106C00002C70F3E69A4200D0F0E604F03FF9002839
:106C100003D11C4B187004F0ADF8200004F0B8F854
:106C2000254B03211878FBF77FFE244C2070DDE60E
:106C3000002A45D0002D00D1D8E600221B4B1A7047
:106C40000F4B1B78934200D0D0E60E4A11780029F2
:106C500002D013700C4A137004F018F9002804D005
:106C600004F088F80022084B1A7001210A4B0A0030
:106C70000A201970FEF73EFAB8E6C046A9210020A6
:106C8000E91B0020481B002080000020541A00202F
:106C90005C1A0020501900206019002037190020CC
:106CA000C8910108251900204F190020F812002072
:106CB0004A1900202F190020D092010864190020E1
:106CC000002900D092E604F0E1F88E4F8E4E0028A5
:106CD00027D004F0E9F88D4B04005B6B98421AD87A
:106CE00001F0D0F98A4D2B68DA8D82420AD08022D9
:106CF000D885884BD2001A8003F018F902210020B1
:106D000002F04CF82D682000A98B01F0E5F9012272
:106D1000814B28601A8004F02DF800233B703370FB
:106D200064E601247D4B1C70FFF71AFE3B783D7032
:106D3000002B03D17A4B34701C7057E6357055E642
:106D4000784B01211B78002B10D00B2C12D0714CEA
:106D5000637D002B01D1494249B2734B1B78002B54
:106D60000AD0481E431E98410B3033E70B2CEED05F
:106D70000239ECE74942EAE7624B27881B78002E8C
:106D800005D1002D00D131E6002B06D02EE6002BD8
:106D900000D02BE6002D00D128E68023DB009F42A7
:106DA00014D15B4D2868FEF725FC040001F004FABD
:106DB000002800DA1AE62B6820001C60FCF7E0FED1
:106DC000FCF70CFF0122544B1A800FE600237818C1
:106DD0001A0080B201F0B8FE544B984200D105E68B
:106DE000874200D102E60122514BA0801A70208018
:106DF000504B92185EE6002E10D1002D00D0F5E524
:106E000004F044F8002814D00D2003F0C1FF4A4AD2
:106E1000424B12781A703C4B1D70E7E5002D00D1F3
:106E2000E4E50024374B1C7003F0A4FF364B1C70C4
:106E3000DCE53B78002B11D1324A1378002B00D1CE
:106E4000D4E50A21013BDBB213703C4AD1543A4AE3
:106E5000324B12781A702C4B1E70C7E5FEF788F97A
:106E6000C4E52B4B1A688023D28BDB009A4200D0FA
:106E7000BCE504F00BF8002800D1B7E5002D00D0E8
:106E8000B4E5002E00D0B1E50E2003F081FFADE5A2
:106E900031002800FFF766FBA8E52800FFF7A4FBF8
:106EA000A4E5122800D9A1E5FBF71EFD8BFE8BFEA1
:106EB0008BFE8BFE8BFE8BFE8BFE8BFE8BFE8BFE8A
:106EC0000DFF4AFF4AFFA0FDDBFFF2FFF7FF8BFE3D
:106ED0008BFE122800D989E5FBF706FDA3FDA3FD73
:106EE000A3FDA3FDA3FDA3FDA3FDA3FDA3FDA3FDA2
:106EF000ACFE32FF32FF88FDC3FFDAFFDFFFA3FDE8
:106F0000A3FDC046481B002080000020F891010826
:106F1000541A00205C1A00204C190020641900202B
:106F200046190020431A0020F8120020FFFF00003D
:106F30004E19002050190020D0920108521B002049
:106F4000002300B50B60302850D8FBF7C3FC191D97
:106F500027292729454F2D4D23313131331F25193D
:106F6000212B354F2319254F45194F45453F4D25B9
:106F70004F4F4D4D4D4D454D373B3B3B3B3B4B0004
:106F800009230020136000BD1723FAE73D23F8E72B
:106F900001230B600A23F4E70323F2E7D023F0E791
:106FA0003223EEE72823ECE705230B60AE33E8E756
:106FB000104BE6E70523E4E73323E2E70E4B0B60D3
:106FC0000E4BDEE70E4B1B78013BDAE70D4B1B68DF
:106FD00031331B78012B01D10223D2E7022B01D1DF
:106FE0000023CEE70423CCE70123CAE70120404277
:106FF000C9E7C046FF030000DC050000AC0D00003F
:1070000090930108541A0020F0B587B006000F00D5
:10701000140004F043FB0D2835D1534B1B78002B93
:1070200031D0524B1D68002D2DDB002E29D0092DAB
:1070300027DC002C25D00F224D4902A810F040FB80
:107040006A464C48E4B2435DD61DE318DBB2190032
:1070500000222039C9B25E2903D91F2B0AD87E230A
:107060000BE00132B75C9F4202D11B19DBB2EEE7A5
:107070000F2AF0D17E2B00D92023012243553E4B0D
:107080001A7007B0F0BD002F28D1002EF9D03B4B6D
:107090001F70354B384D1A78002A22D1384B394EA3
:1070A0001B783078013B614201F02AFC0122364B0B
:1070B00030701A702A7004F0F1FA0F28E1D004F051
:1070C000EDFA1128DDD004F0E9FA1228D9D02F4BBF
:1070D000DB7E002BD5D1FCF759F9D2E7002ED8D1B1
:1070E000CFE704F0DBFA072812D1294B294E1B68A1
:1070F0003068998B284B4C432018984203DC0028B9
:1071000002DA264800E0002000F0E6FF30600FE0E1
:1071100004F0C4FA0C3801280DD800231D4E1A00C3
:1071200030682100001980B201F00EFDFF28EDD17A
:1071300001232B70A5E704F0B1FA02AAC0B201A99D
:10714000FFF7FEFE0028F3D1124E019A31681000BD
:10715000029B914203DB18008B4200DD08002100F6
:1071600001F0CEFBD2E7C046E51B0020B81B002093
:1071700061780108BC1B002080000020481B002013
:1071800038190020E41B0020461900205C1A00205A
:10719000541A0020E01B0020F5E0F505F6E0F505A7
:1071A00070B5B44D88B02C6804F078FA02AAC0B269
:1071B00001A9FFF7C5FE002809D1AF4B019A196854
:1071C000914201DA1A6002E0029A9142FADC01234C
:1071D000AA4E337004F062FA30284AD8FBF78EFBCF
:1071E000310038004D0064004B00620072007800EE
:1071F000FA007D008300B300A500BF00D400D900D1
:10720000F600E000EB00FF00090118011F01240156
:107210002C01490034013801490032013C0194003D
:1072200041017801490049009C01A201A901AB017B
:10723000B901AD017E0189018901890189018901B5
:1072400085018D4A8E4B12685A748E4B0122E9E0FB
:10725000894B2C6818680834C0B200F0FFFE802308
:107260002A68E077D28BDB009A4202D10122864B5A
:107270001A8008B070BD2C6808347F4B1A68002A49
:1072800004D12379012BF4D0A280EFE7D3B2682A8E
:1072900004DC0222013B22716371E7E70322693BB0
:1072A0002271F9E72C680834734B1B68002B04D15A
:1072B0002279012ADDD1A380D8E7013B6371012344
:1072C0002371D3E76C4A2B6812680133DA77CDE774
:1072D000694A2B6812689A61C8E7674A2B68126886
:1072E0002B331A70C2E7644B684A1B68D8B210701F
:1072F00001223270002B04DD0138C0B2FCF7D0FC53
:10730000B7E7FCF7C1FCB4E72B6831331878604B62
:10731000012802D0002803D15E4B574A12681A7028
:1073200001F0ECFF01233370A3E70022524B110060
:10733000186880B202F09AFF0222524B1A70564B24
:10734000013A1A7095E74C4B2A681B689BB2D383AD
:107350004B4A938002224C4B1A804A4BEEE74F4B2C
:107360000922190020205C7A2500854307D0FF2CD4
:1073700005D0414B186880B202F058FF79E7587287
:10738000013B013AEFD2F4E73B4A3D4B12689A7653
:10739000C8E7394A3A4B1268DA76414B002241E09D
:1073A000354B404A1B68404913700A7801339A42B2
:1073B0000ADA1A0008E0304B3B4A1B68394913705F
:1073C0000A78013B9A42F4DC0A70ABE7374B2A4A51
:1073D000126827E0284A2A4B12689A74A2E71E21F5
:1073E000254B334A1B68DBB213704B43314A137091
:1073F00098E7214B29681A680B002C331A70C88B48
:10740000012202F033FF01221E4B1A70224B98E733
:10741000194A1B4B1268511E8A411A7682E7164B95
:107420001A68254B1A707DE7134B1A68234B1A70A4
:1074300002F07AFC224B09E70F4B29681A680B000F
:107440003233DBE71F4BC2E70B4B1A681E4BE9E7F1
:10745000094B1A681D4BE5E72B68074A3133126860
:107460003FE7054B1868431E9841C0B202F07CFF0D
:10747000FFE6C046541A0020E01B00204A190020F5
:107480005C1A0020501900204C1900202A1B0020F3
:10749000490000203E1A00204F190020BC1B00208C
:1074A0002F190020251B0020261B0020471A002032
:1074B0008A1A0020631900208D1A0020921A0020D9
:1074C00051190020391A00208B1A00208C1A002034
:1074D000214A224B12681A70214B5FE71E4B21484C
:1074E0001B68C38002F098FEC3E61B4B1A681E4B54
:1074F00098E703AC22001D4B23CB23C203CB03C26E
:10750000154B1D6804F0CAF8194B2B38ED008000AC
:107510005B1902591B796AE7164B0F4A1268511E14
:107520008A417FE7144A0C4B1B68013B59424B418F
:107530005DE7124BF1E7124AF5E7074A114B126873
:10754000511E8A411A7001F06BFD012001F0EEFD21
:10755000E8E60D4BE1E7C046E01B0020481A00209A
:107560000717002024170020271B00203077010870
:1075700094930108441A0020431A0020411A002065
:107580003A1A00203D1A00203C1A002030B587B07E
:1075900004F084F8302858D8FBF7B0F931003600F1
:1075A0003F003F005D006C0076007C00A60081007B
:1075B00087008B00CF008B008F009300A3009D00FD
:1075C000A000AA00AD00B200B600B900BC00570090
:1075D000C400C7005700C100CA00DA004D00D70040
:1075E000570057000B010E01110114011A01170178
:1075F000E800EF00EF00EF00EF00EF00EC00764A4C
:10760000764B527C1A6020E0754B1B680833D87F9C
:1076100000F02AFD714B186017E0714B1B681D7953
:107620005C7904F03BF80338434258416B1E5A42E0
:107630005341984202D00022684BE3E7674B022D8A
:1076400005D80134002DF6D01C6007B030BD693478
:10765000032DF9D0EFE7624B604A1B68197B0229C2
:1076600004D00329E7D15B7B693301E05B7B013305
:107670001360EAE75A4B1A680023117B012901D1F4
:10768000537B0133554AF3E7554B544A1B6801338A
:10769000DB7FEDE7524A514B12689269B2E7504BDB
:1076A0004E4A1B682B331B78E2E74C4B4D4A12784D
:1076B000A8E7494A494B9288A4E7474A474B927E3C
:1076C000A0E7494B1A78454B002A01D0474AEEE71C
:1076D000414AD27E96E7414B454AE8E73F4B454A4F
:1076E000E5E73E4B444AE2E73B4A3C4B927C89E764
:1076F0003A4B424ADBE73A4B384A1B682C33D2E715
:10770000354A364B127E7DE7344B3D4ACFE7334B4B
:107710003C4ACCE7324B314A1B683233C3E72F4B2C
:10772000394AC4E72D4B394AC1E72C4B384ABEE7EA
:107730002B4B2A4A1B683133B5E7274B0022988828
:107740000123190001F000FA64E7244B314AAEE747
:10775000234B1B6831331A78204B012A01D12E4A62
:10776000A5E7022A00D166E72C4AA0E72C4A1B4B6A
:10777000D28847E7194B2B4A99E701AC22002A4BE4
:1077800023CB23C203CB03C203F088FF2B38800036
:107790000359264A1878264B19780023994200DCB1
:1077A00053E70832141F2478844200D16AE701337A
:1077B000F4E70A4B1F4A7AE7084B1F4A77E7074B63
:1077C0001E4A74E7054B1E4A71E7044B1D4A6EE7DB
:1077D000024B1D4A6BE7C0465C1A0020E01B0020EC
:1077E000541A00202A1B00202F1900202E190020D7
:1077F000251B0020261B0020471A00208A1A002083
:107800008D1A0020921A0020391A00208B1A0020AD
:107810008C1A0020481A0020490000203E1A00203F
:1078200024170020271B00203077010894930108BB
:1078300090930108441A0020431A0020411A0020A6
:107840003A1A00203D1A00203C1A0020F7B5060025
:107850000D00140010284ED8FBF750F8110011004D
:107860001100110011001100110011001100110090
:10787000CA006E017901B0014D00E7010102002A42
:1078800039D1002937D003F009FF0D2811D1B749AC
:107890000B68002B0DDB092B2DDCB54A3036D65496
:1078A00001330B600A2B00D0B1E1B24B1C70B24B1C
:1078B0009FE10125300003F021FAB04BB04C1D7060
:1078C000B04B1B78002B34D12278AA4223D0022A55
:1078D00043D10A20AC4A2370137851784343CB1824
:1078E000002B3AD0A9480078984212D3A84A013B0D
:1078F0001370A84B1D70A84B1B78012B08D103F007
:10790000CDFEA64C1C2800D0ADE1A54B1B882380E2
:10791000F7BD117025709C4B1B78002B1DD09B4A26
:1079200012789A4219D39A4A013B1370994B01225B
:10793000CFE003F0B3FE072812D12378052BDAD964
:1079400003F0F4F900F0ECFF964B1B68998B64236D
:10795000584300F0C1FB944B186000232370CAE722
:1079600003F09CFE0B3802281AD82378032B00D88A
:107970004DE10023844923700A780A335A4348783A
:1079800012185A43887812185343CA78013A9B1840
:1079900080229BB2D2009342ADD2834A1360AAE701
:1079A00003F07CFE6946C0B201AAFFF7C9FA0028BD
:1079B000D3D101990320632903DC2800092900DDC4
:1079C00002200022130025786F4FD6B2B54207D8A7
:1079D000854201D100222270994200DA8BE7DCE770
:1079E0000A267343BE5C0132B44663449BB2ECE7A3
:1079F000002A00D07FE7002900D17CE701225F4BFD
:107A0000604E1A703378002B19D103F047FE0C3802
:107A100001280AD90022584B1A7001233370584BA1
:107A20001A70524B013A1A6065E75F4B22001868E2
:107A3000210080B201F050F80028EBD15BE703F0A1
:107A40002DFE0D2847D1494D2B68002B2CDA564EC0
:107A500022003068210080B201F03EF8002800D1F9
:107A600049E7434C3168200089B202F0FFF9200059
:107A7000FBF706F95F220300092B12DD00220A261C
:107A8000C30F86425341DBB21100934200D0311A3A
:107A9000201842542A602100112244480FF010FEA1
:107AA00029E7E2540133E7E7092B14D801332B60AF
:107AB0000A2B00D01FE72F4B11221C702E4B2C4994
:107AC0003A481C700FF019FE002804D134700022CF
:107AD0002B4B1A700FE73378002BF8D003F0DEFD44
:107AE0000400202803D003000B3B022B1ED8224D9C
:107AF0002F78002F12D0012FE9D102232B7003F031
:107B0000DBFD202C0DD1FFF74BFBBFF34F8F284B34
:107B1000284ADA60BFF34F8FC046FDE701232B7080
:107B2000D5E7144B1F7000233370F8E70122114B87
:107B30001A7000233370CAE7124A1F4B12781B7861
:107B4000002A0AD00122002B0BD1524209E00D4A33
:107B5000194B12781B78002AF4D00122002B00D098
:107B6000023A21002800FFF74FFAC4E6B81B0020B4
:107B7000BC1B002047190020E81B002080000020CB
:107B8000481B0020E51B0020521B00203819002054
:107B9000E41B002046190020E91B00205619002094
:107BA000D2920108541A0020E01B0020CD1B0020B7
:107BB00000ED00E00400FA05431A0020002A00D07E
:107BC00099E6002900D196E62B4B2C4E1B78002B12
:107BD00028D1FBF7EDFB2A4D2B78002B19D0294C2F
:107BE0002378002B08D10023274A2B7013702370B1
:107BF000264B01221A700AE003F050FD0728F2D14B
:107C00000A212378224A013BDBB22370D1541B4B5B
:107C10008DE6204B3470DB7E002B01D1FBF7B6FBE9
:107C20001D4B84E601233370FAE703F037FD0D287E
:107C300010D11A490B68002B0CDB002C00D05AE63F
:107C4000002D00D157E6092B00DD54E6144A13300D
:107C5000D05425E621002800FEF784FC4BE60800FE
:107C6000FEF7C2FC47E603F019FD2A2800D14CE6D6
:107C70000C4B1B784BE6C0465819002080000020B2
:107C8000E51B0020481B0020E81B002046190020AF
:107C9000521B00205C1A002055190020B81B002040
:107CA000BC1B0020D49201082721F0B5314B89B0CC
:107CB0005A6B02A80A435A635B6B00240B40019382
:107CC000019BFBF779F9032301272B4D0493FD3327
:107CD000059402A9AB622800069402930397FBF770
:107CE00019F9F0230394254C1B0202A920000293EA
:107CF0000697FBF70FF9802302A9DB002000A026DE
:107D00000293FBF707F94023F605B3613C3BA361FF
:107D100002A97433200002930397FBF7FBF8A42316
:107D200002A95B0030000293FBF7F4F8C12302A91B
:107D30009B0020000293FBF7EDF8802302A99B0132
:107D40000F480293FBF7E6F8602302A9280002938C
:107D5000FBF7E0F8802302A99B0028000293FBF7C1
:107D6000D9F8C0233000DB0102A90293FBF7D2F857
:107D700009B0F0BD00100240001400500004005093
:107D800000080050F7B502221B24614B6148596B73
:107D9000012511435963596B114001910199016803
:107DA000214301608020196C800001431964196C23
:107DB000594C0140009100991868584908408021A9
:107DC00089030143E0201960A368554900030B4073
:107DD000A360636853490B406360A36852490B403A
:107DE000A360636851490B406360A3680343A360C9
:107DF000A368C0209343A360A3684D4A0B40A360CF
:107E0000236B80001340236363684A4A1340636016
:107E100063681340C02263600923520011004000D0
:107E20002940013B08435208002BF7D1202280054E
:107E300002D0FAF707FFC2B280239B00D3403E4A2C
:107E40009B009B181F221968C0209143173A0A43D0
:107E50001A60C0221A2301259204C00411004000B8
:107E60002940013B08435208002BF7D14001203341
:107E7000002802D0FAF7E6FEC3B28025ED04DD400B
:107E80002E4BF822F820AD00ED18012718232E689C
:107E900012044004110040003940013B08435208DD
:107EA000002BF7D1C0012033002802D0FAF7CAFE18
:107EB000C3B2C0225204DA4007239340F820F822CC
:107EC0009E4301271823120440041100400039404A
:107ED000013B08435208002BF7D1C0012033002892
:107EE00002D0FAF7AFFEC3B2C0225204DA40052333
:107EF0009340042233432B60A3681343A360A36819
:107F00001342FCD10123A2681343A360F7BDC0460E
:107F1000001002400004005000240140FFFF9FFFBA
:107F2000FFFF7FFFFFFFFFFCFFF7FFFFFFFEFFFFED
:107F3000FFFF0FFFFF17FFFF302401400C2401401B
:107F4000A022094B10B59C68D20322439A600222FA
:107F50001C681442FCD0052252421A601B6D03803B
:107F600000230B8010BDC0460024014010B5FFF770
:107F70009BFEFCF743FFFBF7F1F8FFF703FFFCF76D
:107F800043FB05F035FB10BD0E4B4900CA5A802358
:107F90001B0130B5D2180400802013000C210A4DBB
:107FA00040015B00034200D06B4001390029F8D149
:107FB000D802064B18401043032C01D1044B584003
:107FC00030BDC046F4840108EA08000000F07F00DC
:107FD000FFFF7F00F7B504001727E02380221B0175
:107FE00023401201934215D10025104B0093E30565
:107FF000DB0D0193009A6B00D35A019A934206D18C
:10800000EEB231000220FFF7BFFFA0420BD00135D6
:10801000682DEFD1012323409B056408013F1C43D9
:10802000002FDAD1FF263000FEBDC046F4840108DF
:1080300070B502003224FF200023074E5900755A04
:10804000511B00D5A91AA14201DA0C00D8B20133A4
:10805000322BF3D170BDC046C4850108014B185CBA
:108060007047C046B091010803000020044A115C2B
:10807000994203D001301828F9D100207047C0463A
:10808000B09101080623054AD9005158814201D810
:1080900058B27047013BF7D20020FAE7F891010887
:1080A00070B5069C0D00049E05999C420BDD8C4228
:1080B0000FDAB44208DC2A1AE01A5043F11AFAF730
:1080C000BDFC2818C0B270BD521BA01B5043891BB9
:1080D000F5E71000F7E70000164B70B505000C003F
:1080E000994215D11449FAF7A5FC0800AF2189007F
:1080F000FAF71AFC44430338434258410E49241806
:108100002800FAF711FC0C4D45436519280070BD95
:108110000129FBD0FA239B00994200D34C08601C34
:1081200080B2401021004019FAF7FEFB44432500BD
:10813000ECE7C04641030000C4090000134A0300F5
:108140008118134A91421ED8124A134982188A4252
:1081500019D9124A1078022805D0032809D0431EE5
:108160009841404204E00E4A0E489B1898428041D4
:1081700070470D4A0D499A1800208A42F8D90C4AD6
:108180000C489B18F2E70120EBE7C04640A3EAFF4A
:1081900040A8D40680FD8AFC7FA81201481A00205E
:1081A000007B30FF806B2B02407557FD204E000096
:1081B000142E6BFD10980200084A03008118084A2B
:1081C000914208D8074A0020934203D9064A9A42AE
:1081D0004041404270470120FBE7C04640A3EAFF10
:1081E00040A8D4067F027503FFAA8704022200205C
:1081F000034B1B78023BDBB29A424041C0B270474E
:10820000081700200023124A1370124A1370124AF2
:108210001370124A1370124A1370124A1380124AD2
:108220001370124A1370124A1370124A1370124AD2
:108230001370124A1268110031310978994201D144
:1082400013691B790E4A137001220E4B1A70704786
:108250004119002044190020421900204019002033
:1082600032190020681900205F1900205E190020D3
:1082700034190020351900205D190020501A002003
:108280004B1A00206019002010B5012814D1FCF70A
:1082900091FD00220A4B1A705A700A4B1B78002B72
:1082A00006D0094B1A88002A02D1084A12881A807F
:1082B0000122074B1A7002E003380128EDD910BDE6
:1082C0005B190020A9210020A0210020D6920108DE
:1082D000601900200A2270B5002401250D4B9B7EF9
